:020000040800F2
:10000000B8060020890100084B0D0008830C000889
:10001000490D00088F0200087B0E00080000000058
:100020000000000000000000000000004F0D00086C
:1000300091020008000000004D0D0008510D00085D
:10004000A3010008A3010008A3010008A301000800
:10005000A3010008A3010008A3010008A3010008F0
:10006000A3010008A3010008A3010008A3010008E0
:10007000A3010008A3010008A3010008A3010008D0
:10008000A3010008A3010008A3010008A3010008C0
:10009000A3010008A3010008A3010008A3010008B0
:1000A000A3010008A3010008A3010008A3010008A0
:1000B000A3010008A301000800000000A30100083C
:1000C000A30100080000000000000000A3010008D8
:1000D00000000000A3010008A301000800000000C8
:1000E000A3010008A3010008A301000800F002F822
:1000F00000F03AF80AA090E8000C82448344AAF188
:100100000107DA4501D100F02FF8AFF2090EBAE885
:100110000F0013F0010F18BFFB1A43F0010318473B
:100120000411000024110000103A24BF78C878C1DF
:10013000FAD8520724BF30C830C144BF04680C60ED
:10014000704700000023002400250026103A28BF35
:1001500078C1FBD8520728BF30C148BF0B60704739
:100160001FB51FBD10B510BD00F058F81146FFF7C0
:10017000F7FF00F093FE00F076F803B4FFF7F2FF0C
:1001800003BC00F07DF8000009488047094800479B
:10019000FEE7FEE7FEE7FEE7FEE7FEE7FEE7FEE737
:1001A000FEE7FEE704480549054A064B7047000094
:1001B000B30D0008ED000008B8000020B8060020CC
:1001C000B8020020B80200204FF0000200B513462C
:1001D00094469646203922BFA0E80C50A0E80C5067
:1001E000B1F12001BFF4F7AF090728BFA0E80C5018
:1001F00048BF0CC05DF804EB890028BF40F8042B11
:1002000008BF704748BF20F8022B11F0804F18BF7D
:1002100000F8012B7047704770477047754600F033
:100220002BF8AE4605006946534620F00700854688
:1002300018B020B5FFF7B6FFBDE820404FF000062C
:100240004FF000074FF000084FF0000B21F00701BE
:10025000AC46ACE8C009ACE8C009ACE8C009ACE801
:10026000C0098D46704710B50446AFF300802046A4
:10027000BDE81040FFF781BF0048704758000020DC
:1002800001491820ABBEFEE7260002007047FEE7DA
:10029000704772B6FEE7000070B5044600F0F4F84F
:1002A0000546601C02D004480078044400F0ECF8D5
:1002B000401BA042FAD370BD000000202DE9F84F8A
:1002C000DFF89C91002409F1040A0AF1040B23468B
:1002D0000F270BF1040EBBE00125A5402A40AA42DE
:1002E00076D1DFF880C14E68A6EB0C0866452BD0AE
:1002F0000DDC032E34D005DC36B3012E19D0022ECE
:100300002FD11BE0112E16D0122E2AD119E0B8F5EC
:10031000881F19D006DCB8F5803F15D0B8F5801FCE
:100320001FD111E0B8F5001F0ED0B8F5041F18D189
:100330000AE0CB6815E0CB681B1D12E0CB680833E0
:100340000FE0CB680C330CE08B682BB1012B4FF026
:10035000080303D0456104E0042302E0056100E0E6
:100360000023FF2A01D8064601E000F104064FEA07
:10037000840501D9A5F12005D6F8008007FA05FC0F
:1003800028EA0C0803FA05F548EA0508C6F80080D3
:100390004D68ED005BD5344DAE6946F00106AE61A7
:1003A000AD6924F0030605F0010500952F4D06EB1D
:1003B000050CDCF80850A607360F07FA06F825EA00
:1003C0000805DFF8AC80404503D14FF0000810E08D
:1003D0003DE0DFF8A080404502D14FF0010808E081
:1003E000DFF89480404502D14FF0020801E04FF061
:1003F000030808FA06F848EA0508CCF808804D68B2
:10040000D9F80060ED034D4601D5164300E0964350
:100410002E604D68DAF80060AD03554601D51643ED
:1004200000E096432E604D68DBF80060ED025D460B
:1004300001D5164300E096432E604D68DEF800605B
:10044000AD02754601D5164300E096432E60641C4C
:100450000A6832FA04F57FF43FAFBDE8F88F000078
:100460000004014000001110001002400000014093
:1004700000080140000C0140001001400AB1016178
:1004800070470904FBE700000148806870470000DE
:1004900000000020024881680278114481607047A2
:1004A00000000020074810B5016841F0100101600C
:1004B000032000F067F80F2000F006F800F024F8A1
:1004C000002010BD0020024070B50D4D04464FF4D1
:1004D0007A712878B1FBF0F00A490968B1FBF0F0B5
:1004E00000F0BEFA48B9102C07D200222146501E57
:1004F00000F028F800206C6070BD012070BD000085
:10050000000000200C0000200C4808B5816941F073
:1005100001018161816901F001010091C16941F02E
:100520008051C161C06900F080500090044841686A
:1005300021F0E06141F00071416008BD001002400F
:1005400000000140F0B40E4B1B680C46C3F30223BD
:10055000C3F10705042D00D90425191D072901D26F
:10056000002300E0DB1E012606FA05F1491E2140AA
:1005700099409E40761E16403143F0BC00F07EBC90
:100580000CED00E0064900F0070208684FF6FF0393
:10059000184040EA0220034A1043086070470000F8
:1005A0000CED00E00000FA052DE9F0470F460500CC
:1005B00061D0434E306800F00700B84209D230687D
:1005C00020F0070038433060306800F00700B84280
:1005D00051D128683B4C810712D5400703D560688C
:1005E00040F4E06060602878000703D5606840F45C
:1005F000605060606068A96820F0F00008436060A7
:100600002878C00728D06868012810D021680228FF
:1006100010D0890700292EDA616821F00301014317
:100620006160FFF731FF804641F288390DE02168B3
:100630008903EFE78901EDE7FFF726FFA0EB08014B
:10064000494502D90320BDE8F0876068696800F079
:100650000C00B0EB810FEFD1306800F00700B8421A
:100660000BD9306820F0070038433060306800F064
:100670000700B84201D00120E5E72878400705D5FA
:100680006068E96820F4E06008436060287800074B
:1006900006D56068296920F4605040EAC1006060B6
:1006A00000F018F86168084AC1F30311515CC840B2
:1006B0000649086006480068FFF706FF0020C2E709
:1006C0000020024000100240141200080C0000201C
:1006D0000400002012A185B00FC98DE80F0014A0FE
:1006E000144A006804905168134801F00C03042B6D
:1006F00010D0082B0ED1C1F38343C9031DF80300AA
:100700000AD5516804AAC1F34041515C0A4A5043DA
:10071000B0FBF1F005B0704708494843FAE7000024
:1007200002030405060708090A0B0C0D0E0F101032
:10073000010200000010024000127A0000093D0092
:100740002DE9F84F040070D02078C04DC00749D083
:100750006868C0F38100012807D06868C0F3810091
:10076000022809D16868C00306D52868800339D5F6
:1007700060680028E7D035E06068B0F5803F0BD0B6
:1007800010B1B0F5A02F11D0286820F48030286077
:10079000286820F4802002E0286840F48030286037
:1007A000606890B1FFF770FE06460AE0286840F4E2
:1007B00080202860F0E700BFFFF766FE801B6428FA
:1007C00073D828688003F7D50CE0FFF75DFE064676
:1007D00005E000BFFFF758FE801B6428F0D82868AA
:1007E0008003F7D420789A4E80074FF001094FF02C
:1007F000000839D5686810F00C0F07D06868C0F39E
:100800008100022809D16868C00306D428688007DF
:1008100014D52069012808D110E02069B0B1C6F8CC
:100820000090FFF731FE074605E00AE1FFF72CFED6
:10083000C01B0228C4D828688007F7D528686169DA
:1008400020F0F80040EAC10028600DE0C6F8008002
:10085000FFF71AFE074604E0FFF716FEC01B02284A
:1008600023D828688007F7D4207800072CD579484A
:10087000A169D9B1C0F80090FFF706FE074604E071
:10088000FFF702FEC01B02280FD8686A8007F7D561
:1008900071484FF4FA510068B0FBF1F0009000BFCE
:1008A0000098411E0091FAD20EE080E0C0F800806E
:1008B000FFF7EAFD074604E0FFF7E6FDC01B02284C
:1008C00075D8686A8007F7D42078400760D5E86952
:1008D0000027C00008D4E86940F08050E861E8696A
:1008E000012700F0805000905C480168C90513D4CE
:1008F0000168834641F480710160FFF7C5FD8246BF
:1009000006E000BFFFF7C0FDA0EB0A0064284ED848
:10091000DBF80000C005F5D5E06801280AD008B171
:10092000052813D0286A20F001002862286A20F0E8
:10093000040002E0286A40F001002862E06841F209
:10094000883B98B1FFF7A0FD82460BE0286A40F093
:1009500004002862EEE700BFFFF796FDA0EB0A0156
:1009600059455AD8286A8007F6D50CE0FFF78CFD68
:10097000824605E0FFF788FDA0EB0A0159454CD8F7
:10098000286A8007F6D41FB1E86920F08050E8613A
:10099000E06988B36968C1F38101022944D0022863
:1009A000C6F8608004D0FFF76FFD044638E034E0FD
:1009B000FFF76AFD074604E0FFF766FDC01B02284B
:1009C0002BD828688001F7D4206AB0F5803F05D184
:1009D0006868A16820F4003008436860D4E9080121
:1009E0000843696821F4741108436860C6F8609090
:1009F000FFF74AFD044606E025E000BFFFF744FD8F
:100A0000001B022809D828688001F7D51BE000BF29
:100A1000FFF73AFD001B022802D90320BDE8F88F3A
:100A200028688001F4D40EE00128F7D06868226AB3
:100A300000F48031914204D1616A00F47010884260
:100A400001D00120EAE70020E8E7000000100240A2
:100A500000004242800442420C000020007000402E
:100A600010B5401EB0F1807F01D3012010BD4FF0C2
:100A7000E02460610F21601700F000FA0020A061FF
:100A800007202061002010BD70B590F83C20012A9D
:100A900023D0012480F83C40022280F83D200368E6
:100AA0005A689D6822F070060A6832435A600C4BFF
:100AB00002689A4205D0B2F1804F02D0094B9A42A7
:100AC00004D1496825F080031943916080F83D40C6
:100AD000002180F83C10084670BD022070BD000067
:100AE000002C01400004004010B5040003D094F82D
:100AF0003D0010B107E0012010BD002084F83C004B
:100B0000204600F01FF8022084F83D00211D2068D7
:100B100000F050F9012084F8460084F83E0084F883
:100B20003F0084F8400084F8410084F8420084F8D3
:100B3000430084F8440084F8450084F83D00002018
:100B400010BD000008B50068B0F1804F08D105481D
:100B5000C16941F00101C161C06900F0010000906C
:100B600008BD00000010024090F83D10012901D09E
:100B700001207047022180F83D1000680949884231
:100B800005D0B0F1804F02D00749884204D1816876
:100B900001F00701062903D0016841F0010101605D
:100BA00000207047002C01400004004070B504464E
:100BB00090F83C00012817D0012584F83C50022011
:100BC00084F83D002068826822F0770222F47F4298
:100BD00082600868502830D00DDC20284DD005DC1C
:100BE00098B310283BD148E0022070BD302844D093
:100BF000402834D139E0602828D0702806D0B0F5DC
:100C0000805F2CD0B0F5005F29D10AE0CB68D1E934
:100C10000121206800F0FCF82068816841F077012C
:100C200009E0CB68D1E90121206800F0F1F82068E3
:100C3000816841F48041816011E0CA684968206898
:100C400000F0F8F85021206807E016E0CA6849680B
:100C5000206800F000F96021206800F0E3F884F8D3
:100C60003D50002084F83C0070BDCA684968206887
:100C700000F0E0F840212068EFE7226801461046C6
:100C8000EBE7FEE730B585B00024144800940194EA
:100C900002940394816941F020018161816901F02E
:100CA00020010491816941F00401816180690C4D4A
:100CB00000F00400049000221E212846FFF7DEFB0E
:100CC0001E2000900120CDE9010402200390694616
:100CD0002846FFF7F3FA05B030BD000000100240CF
:100CE0000008014010B586B0002416480094019415
:100CF0000294039404944FF08041059401604721CD
:100D0000C0E901144FF6FF71C0E903148461FFF7D5
:100D1000EBFE08B1FFF7BDFA4FF480500090694632
:100D20000848FFF743FF08B1FFF7B3FA049404A99A
:100D300004480594FFF7A8FE002801D0FFF7A9FAA0
:100D400006B010BD10000020FEE7FEE770477047B8
:100D5000FFF7A0BB30B58FB028216846FFF734FA03
:100D600014210AA8FFF730FA01210804CDE9001088
:100D70000024029402250491CDE907504FF4E010BD
:100D800009906846FFF7DCFC08B172B6FEE70F2059
:100D9000CDE90A054FF48060CDE90C4002210AA894
:100DA0000E94FFF701FC002801D072B6FEE70FB0E9
:100DB00030BD704770B50268134B144C4FF080463D
:100DC000984203D0B04201D0A04203D122F0700576
:100DD0004A682A43984203D0B04201D0A04203D1CE
:100DE00022F44074CA6822434C6922F080022243F4
:100DF00002608A68C2620A688262984201D1096907
:100E000001630121416170BD002C014000040040DC
:100E100010B5846842EA032224F47F440A43224343
:100E2000826010BD826822F070020A4342F007011E
:100E30008160704710B5036A046A24F001040462FB
:100E4000846924F0F00444EA021423F00A020A43FD
:100E50008461026210BD10B5036A23F010030362BF
:100E60008369046A23F4704343EA023224F0A00346
:100E700043EA01118261016210BDFEE70907090E14
:100E8000002804DB00F1E02080F80014704700F037
:100E90000F0000F1E02080F8141D7047FFF702FBFF
:100EA000FFF758FFFFF7EEFEFFF71CFF0A48FFF7BA
:100EB0005BFE4FF47A744FF480752146284600F0AB
:100EC000E1F86420FFF7E8F92146802000F012F8ED
:100ED0006420FFF7E1F9F0E7100000200449002248
:100EE0000B685A6209684A6A8242FCD37047000064
:100EF000100000202DE9F0410E4605460024B9E01F
:100F00005F4F012202213846FFF7B8FA0022042180
:100F10003846FFF7B3FA002208213846FFF7AEFA49
:100F2000002210213846FFF7A9FA3046FFF7D6FF16
:100F3000012202213846FFF7A1FA01220421384696
:100F4000FFF79CFA002208213846FFF797FA0022A3
:100F500010213846FFF792FA3046FFF7BFFF002214
:100F600002213846FFF78AFA012204213846FFF7AA
:100F700085FA002208213846FFF780FA0022102166
:100F80003846FFF77BFA3046FFF7A8FF0022022120
:100F90003846FFF773FA012204213846FFF76EFA4C
:100FA000012208213846FFF769FA0022102138464D
:100FB000FFF764FA3046FFF791FF0022022138461E
:100FC000FFF75CFA002204213846FFF757FA0122A6
:100FD00008213846FFF752FA002210213846FFF761
:100FE0004DFA3046FFF77AFF002202213846FFF71C
:100FF00045FA002204213846FFF740FA0122082171
:101000003846FFF73BFA012210213846FFF736FA3F
:101010003046FFF763FF002202213846FFF72EFA21
:10102000002204213846FFF729FA00220821384619
:10103000FFF724FA012210213846FFF71FFA304645
:10104000FFF74CFF012202213846FFF717FA002272
:1010500004213846FFF712FA002208213846FFF72C
:101060000DFA012210213846FFF708FA3046FFF743
:1010700035FF641CAC42FFF643AFBDE8F0810000D1
:10108000000801402DE9F0410E4605460024B9E074
:101090005F4F012202213846FFF7F0F900220421B8
:1010A0003846FFF7EBF9002208213846FFF7E6F94A
:1010B000012210213846FFF7E1F93046FFF70EFF15
:1010C000002202213846FFF7D9F9002204213846D0
:1010D000FFF7D4F9002208213846FFF7CFF90122A3
:1010E00010213846FFF7CAF93046FFF7F7FE002215
:1010F00002213846FFF7C2F9002204213846FFF7E3
:10110000BDF9012208213846FFF7B8F90122102164
:101110003846FFF7B3F93046FFF7E0FE0022022120
:101120003846FFF7ABF9002204213846FFF7A6F94D
:10113000012208213846FFF7A1F900221021384684
:10114000FFF79CF93046FFF7C9FE0022022138461E
:10115000FFF794F9012204213846FFF78FF90122A5
:1011600008213846FFF78AF9002210213846FFF798
:1011700085F93046FFF7B2FE002202213846FFF71C
:101180007DF9012204213846FFF778F90022082171
:101190003846FFF773F9002210213846FFF76EF941
:1011A0003046FFF79BFE012202213846FFF766F921
:1011B000012204213846FFF761F900220821384650
:1011C000FFF75CF9002210213846FFF757F9304647
:1011D000FFF784FE012202213846FFF74FF9002273
:1011E00004213846FFF74AF9002208213846FFF764
:1011F00045F9002210213846FFF740F93046FFF745
:101200006DFE641CAC42FFF643AFBDE8F081000008
:10121000000801400000000000000000010203047B
:101220000607080944120008000000201000000012
:10123000280100085412000810000020A806000031
:101240004401000801000000100000000000000040
:041250000024F40082
:04000005080000ED02
:00000001FF
